:020000040000FA
:10000000E8B8012081490100E13B05006D4901008C
:100010006D4901006D4901006D4901006D49010004
:10002000000000000000000000000000A14B0100E3
:100030006D49010000000000F54A01006D49010012
:10004000814E0100814E0100814E0100814E010070
:10005000814E0100814E0100814E0100814E010060
:10006000814E0100814E0100814E0100814E010050
:10007000814E0100814E0100814E0100814E010040
:10008000814E0100814E0100814E0100814E010030
:10009000814E0100814E0100814E0100814E010020
:1000A000814E0100814E0100814E0100814E010010
:1000B000814E0100814E0100814E0100814E010000
:1000C000814E0100814E0100814E0100814E0100F0
:1000D000814E0100814E0100814E0100814E0100E0
:1000E000814E0100814E0100814E0100814E0100D0
:1000F000814E0100814E0100814E0100814E0100C0
:10010000814E0100814E0100814E0100814E0100AF
:10011000814E0100814E0100814E0100814E01009F
:10012000814E0100814E0100814E0100814E01008F
:10013000814E0100814E0100814E0100814E01007F
:10014000814E0100814E0100814E0100814E01006F
:10015000814E0100FFFFFFFF81F0004102E000BF80
:1001600083F0004330B54FEA41044FEA430594EA77
:10017000050F08BF90EA020F1FBF54EA000C55EAB2
:10018000020C7FEA645C7FEA655C00F0E2804FEA83
:100190005454D4EB5555B8BF6D420CDD2C4480EA65
:1001A000020281EA030382EA000083EA010180EA95
:1001B000020281EA0303362D88BF30BD11F0004FE3
:1001C0004FEA01314FF4801C4CEA113102D0404219
:1001D00061EB410113F0004F4FEA03334CEA133354
:1001E00002D0524263EB430394EA050F00F0A7806C
:1001F000A4F10104D5F1200E0DDB02FA0EFC22FA67
:1002000005F2801841F1000103FA0EF2801843FA5A
:1002100005F359410EE0A5F120050EF1200E012A4B
:1002200003FA0EFC28BF4CF0020C43FA05F3C01889
:1002300051EBE37101F0004507D54FF0000EDCF102
:10024000000C7EEB00006EEB0101B1F5801F1BD3AB
:10025000B1F5001F0CD349085FEA30004FEA3C0CAF
:1002600004F101044FEA445212F5800F80F09A80A5
:10027000BCF1004F08BF5FEA500C50F1000041EBA9
:10028000045141EA050130BD5FEA4C0C404141EBAD
:100290000101013C28BFB1F5801FE9D291F0000FA8
:1002A00004BF01460020B1FA81F308BF2033A3F157
:1002B0000B03B3F120020CDA0C3208DD02F1140C4E
:1002C000C2F10C0201FA0CF021FA02F10CE002F189
:1002D0001402D8BFC2F1200C01FA02F120FA0CFC82
:1002E000DCBF41EA0C019040E41AA2BF01EB0451CB
:1002F000294330BD6FEA04041F3C1CDA0C340EDCC9
:1003000004F11404C4F1200220FA04F001FA02F30B
:1003100040EA030021FA04F345EA030130BDC4F1C9
:100320000C04C4F1200220FA02F001FA04F340EABE
:100330000300294630BD21FA04F0294630BD94F06F
:10034000000F83F4801306BF81F480110134013D56
:100350004EE77FEA645C18BF7FEA655C29D094EAC7
:10036000050F08BF90EA020F05D054EA000C04BF45
:100370001946104630BD91EA030F1EBF0021002030
:1003800030BD5FEA545C05D14000494128BF41F0CF
:10039000004130BD14F580043CBF01F5801130BD33
:1003A00001F0004545F0FE4141F470014FF00000BE
:1003B00030BD7FEA645C1ABF194610467FEA655C6F
:1003C0001CBF0B46024650EA013406BF52EA033511
:1003D00091EA030F41F4002130BD00BF90F0000FFF
:1003E00004BF0021704730B54FF4806404F132043B
:1003F0004FF000054FF0000150E700BF90F0000FF4
:1004000004BF0021704730B54FF4806404F132041A
:1004100010F0004548BF40424FF000013EE700BFEA
:1004200042004FEAE2014FEA31014FEA02701FBF7A
:1004300012F07F4393F07F4F81F06051704732F0AC
:100440007F4208BF704793F07F4F04BF41F4002103
:10045000704730B54FF4607401F0004521F0004161
:100460001CE700BF50EA010208BF704730B54FF0EB
:1004700000050AE050EA010208BF704730B511F0EC
:10048000004502D5404261EB41014FF4806404F124
:1004900032045FEA915C3FF4D8AE4FF003025FEAAA
:1004A000DC0C18BF03325FEADC0C18BF033202EB2E
:1004B000DC02C2F1200300FA03FC20FA02F001FA88
:1004C00003FE40EA0E0021FA02F11444BDE600BF2B
:1004D00070B54FF0FF0C4CF4E06C1CEA11541DBFDA
:1004E0001CEA135594EA0C0F95EA0C0F00F0DEF8A5
:1004F0002C4481EA030621EA4C5123EA4C5350EA8A
:10050000013518BF52EA033541F4801143F48013DA
:1005100038D0A0FB02CE4FF00005E1FB02E506F06B
:100520000042E0FB03E54FF00006E1FB03569CF0C0
:10053000000F18BF4EF0010EA4F1FF04B6F5007FC6
:1005400064F5407404D25FEA4E0E6D4146EB060638
:1005500042EAC62141EA55514FEAC52040EA5E50C1
:100560004FEACE2EB4F1FD0C88BFBCF5E06F1ED86B
:10057000BEF1004F08BF5FEA500E50F1000041EBA2
:10058000045170BD06F0004646EA010140EA02004F
:1005900081EA0301B4EB5C04C2BFD4EB0C0541EA71
:1005A000045170BD41F480114FF0000E013C00F386
:1005B000AB8014F1360FDEBF002001F0004170BDAA
:1005C000C4F10004203C35DA0C341BDC04F11404C3
:1005D000C4F1200500FA05F320FA04F001FA05F24F
:1005E00040EA020001F0004221F0004110EBD3701C
:1005F00021FA04F642EB06015EEA430E08BF20EA48
:10060000D37070BDC4F10C04C4F1200500FA04F3EA
:1006100020FA05F001FA04F240EA020001F000417C
:1006200010EBD37041F100015EEA430E08BF20EAEF
:10063000D37070BDC4F1200500FA05F24EEA020E37
:1006400020FA04F301FA05F243EA020321FA04F066
:1006500001F0004121FA04F220EA020000EBD3701D
:100660005EEA430E08BF20EAD37070BD94F0000F1D
:100670000FD101F00046400041EB010111F4801F51
:1006800008BF013CF7D041EA060195F0000F18BF02
:10069000704703F00046520043EB030313F4801F3E
:1006A00008BF013DF7D043EA0603704794EA0C0FF8
:1006B0000CEA135518BF95EA0C0F0CD050EA41060E
:1006C00018BF52EA4306D1D181EA030101F000418B
:1006D0004FF0000070BD50EA410606BF10461946B3
:1006E00052EA430619D094EA0C0F02D150EA0136BF
:1006F00013D195EA0C0F05D152EA03361CBF104600
:1007000019460AD181EA030101F0004141F0FE419E
:1007100041F470014FF0000070BD41F0FE4141F422
:10072000780170BD70B54FF0FF0C4CF4E06C1CEA22
:1007300011541DBF1CEA135594EA0C0F95EA0C0FD7
:1007400000F0A7F8A4EB050481EA030E52EA033592
:100750004FEA013100F088804FEA03334FF08055B3
:1007600045EA131343EA12634FEA022245EA1115E0
:1007700045EA10654FEA00260EF000419D4208BF91
:10078000964244F1FD0404F5407402D25B084FEA3E
:100790003202B61A65EB03055B084FEA32024FF4EA
:1007A00080104FF4002CB6EB020E75EB030E22BF47
:1007B000B61A754640EA0C005B084FEA3202B6EB07
:1007C000020E75EB030E22BFB61A754640EA5C00B6
:1007D0005B084FEA3202B6EB020E75EB030E22BF46
:1007E000B61A754640EA9C005B084FEA3202B6EB47
:1007F000020E75EB030E22BFB61A754640EADC0006
:1008000055EA060E18D04FEA051545EA16754FEA67
:1008100006164FEAC30343EA52734FEAC2025FEA85
:100820001C1CC0D111F4801F0BD141EA00014FF014
:1008300000004FF0004CB6E711F4801F04BF0143E5
:100840000020B4F1FD0C88BFBCF5E06F3FF6AFAE01
:10085000B5EB030C04BFB6EB020C5FEA500C50F191
:10086000000041EB045170BD0EF0004E4EEA113114
:1008700014EB5C04C2BFD4EB0C0541EA045170BD1B
:1008800041F480114FF0000E013C90E645EA060E5F
:100890008DE60CEA135594EA0C0F08BF95EA0C0F8D
:1008A0003FF43BAF94EA0C0F0AD150EA01347FF4D5
:1008B00034AF95EA0C0F7FF425AF104619462CE7AC
:1008C00095EA0C0F06D152EA03353FF4FDAE10460F
:1008D000194622E750EA410618BF52EA43067FF460
:1008E000C5AE50EA41047FF40DAF52EA43057FF4F0
:1008F000EBAE12E74FF0FF3C06E000BF4FF0010CFB
:1009000002E000BF4FF0010C4DF804CD4FEA410C5E
:100910007FEA6C5C4FEA430C18BF7FEA6C5C1BD02B
:1009200001B050EA410C0CBF52EA430C91EA030FAC
:1009300002BF90EA020F0020704710F1000F91EA09
:10094000030F58BF994208BF90422CBFD8176FEAD7
:10095000E37040F0010070474FEA410C7FEA6C5CA5
:1009600002D150EA013C07D14FEA430C7FEA6C5CAC
:10097000D6D152EA033CD3D05DF8040B704700BFD8
:100980008446104662468C461946634600E000BF26
:1009900001B5FFF7B7FF002848BF10F1000F01BDF8
:1009A0004DF808EDFFF7F4FF0CBF012000205DF8C3
:1009B00008FB00BF4DF808EDFFF7EAFF34BF012048
:1009C00000205DF808FB00BF4DF808EDFFF7E0FFE1
:1009D00094BF012000205DF808FB00BF4DF808ED32
:1009E000FFF7CEFF94BF012000205DF808FB00BF99
:1009F0004DF808EDFFF7C4FF34BF012000205DF87B
:100A000008FB00BF4FEA410212F5001215D211D5C2
:100A10006FF47873B3EB625212D94FEAC12343F0FB
:100A2000004343EA505311F0004F23FA02F018BF7D
:100A3000404270474FF00000704750EA013005D146
:100A400011F0004008BF6FF0004070474FF0000009
:100A5000704700BF4FEA4102B2F1E04324BFB3F553
:100A6000001CDCF1FE5C0DD901F0004C4FEAC00225
:100A70004CEA5070B2F1004F40EB830008BF20F009
:100A80000100704711F0804F21D113F13872BCBFC3
:100A900001F00040704741F480114FEA5252C2F118
:100AA0001802C2F1200C10FA0CF320FA02F018BF61
:100AB00040F001004FEAC1234FEAD32303FA0CFCB4
:100AC00040EA0C0023FA02F34FEA4303CCE77FEA43
:100AD000625307D150EA01331EBF4FF0FE4040F48D
:100AE0004000704701F0004040F0FE4040F400003C
:100AF000704700BF7BB972B90029BEBF00204FF01C
:100B0000004106E008BF00281CBF6FF000414FF015
:100B1000FF3000F075B8ADF1080C6DE904CE002986
:100B200009DB002B1ADB00F0BAF8DDF804E0DDE9A0
:100B3000022304B07047404261EB4101002B1BDBF4
:100B400000F0ADF8DDF804E0DDE9022304B0404236
:100B500061EB4101524263EB43037047524263EB46
:100B6000430300F09CF8DDF804E0DDE9022304B063
:100B7000404261EB41017047524263EB430300F096
:100B80008EF8DDF804E0DDE9022304B0524263EBA5
:100B90004303704753B94AB9002908BF00281CBF56
:100BA0004FF0FF314FF0FF3000F02AB8ADF1080CE4
:100BB0006DE904CE00F073F8DDF804E0DDE902230E
:100BC00004B07047D0B500220B4B06460F46FFF726
:100BD0007FFC00F017F80446FFF700FC0022074BEB
:100BE000FFF776FC02460B4630463946FFF7B8FA67
:100BF00000F008F82146D0BD0000F03D0000F041B3
:100C0000704700BF4A0011D212F5001211D20DD563
:100C10006FF47873B3EB62520ED44FEAC12343F002
:100C2000004343EA505323FA02F070474FF00000AC
:100C3000704750EA013002D14FF0FF3070474FF05B
:100C4000000070474FEA410C7FEA6C5C02D150EA29
:100C5000013C0AD14FEA430C7FEA6C5C02D152EAB4
:100C6000033C02D14FF0000070474FF00100704785
:100C700038B50022002304460D46FFF79BFE28B935
:100C800020462946BDE83840FFF79CBF204605F1C5
:100C90000041FFF797FF404261EB410138BD2DE96C
:100CA000F04786468C460846089E15467446194607
:100CB000002B40F0C1808542B2FA82F245D94AB198
:100CC000C2F1200300FA02FC954094402EFA03F38F
:100CD00043EA0C0C4FEA154EA8B2230CBCFBFEF8FD
:100CE0000EFB18CC08FB00F943EA0C43994528D9C0
:100CF000EB1808F1FF3704D2994502D9A8F1020791
:100D00002B44A3EB0903A4B2B3FBFEFC0EFB1C3384
:100D10000CFB00F044EA0344A04214D92C190CF156
:100D2000FF3304D2A04202D9ACF102032C44241AAE
:100D300043EA07401EB1D440002334607360BDE82D
:100D4000F0874746DDE76346F1E792BB431B01218D
:100D50004FEA154EAFB2200CB3FBFEFC0EFB1C336A
:100D60000CFB07F840EA0343984561D9EB180CF1F6
:100D7000FF3004D2984502D9ACF102002B44A3EB1A
:100D80000803A4B2B3FBFEFC0EFB1C330CFB07F7FD
:100D900044EA0344A7424DD92C190CF1FF3304D285
:100DA000A74202D9ACF102032C44E41B43EA004001
:100DB000C0E7C2F120039540944020FA03F12EFAD7
:100DC00003F34FEA154E9040AFB20343B1FBFEFC74
:100DD0000EFB1C10190C0CFB07F841EA004188457A
:100DE00022D969180CF1FF3004D2884502D9ACF140
:100DF00002002944A1EB08019BB2B1FBFEFC0EFBF3
:100E00001C110CFB07F743EA01439F420ED9EB1874
:100E10000CF1FF3104D29F4202D9ACF102012B4404
:100E2000DB1B41EA004193E76046E3E76146F7E7F1
:100E30006046A4E76346B8E7834206D916B90021A5
:100E400008467CE7C6E900E0F9E7B3FA83F78FB913
:100E5000834201D3724508D8BEEB020460EB030362
:100E600001209C461EB9002169E73846FAE7C6E929
:100E7000004CF8E7C7F1200CBB400EFA07F522FA48
:100E80000CF42EFA0CF1BA401C4320FA0CF3B840D3
:100E90004FEA144901431FFA84FEB3FBF9F809FB3A
:100EA00018300B0C08FB0EFA43EA00439A4540D970
:100EB000E31808F1FF3004D29A4502D9A8F10200E4
:100EC0002344A3EB0A0389B2B3FBF9F809FB1833F7
:100ED00008FB0EFE41EA03418E452CD9611808F14A
:100EE000FF3304D28E4502D9A8F10203214443EA1C
:100EF0000040A1EB0E01A0FB02984145CE464346BF
:100F000002D306D14D4504D20138B9EB020E68EB8D
:100F10000403002EA7D0B5EB0E0261EB030101FA2A
:100F20000CFC22FA07F3F9404CEA0303C6E900314E
:100F300099E74046C5E74346D9E770B4840746D0F1
:100F40004C1E002941D0D5B2034602E0611EE4B335
:100F50000C4603F8015B9907F8D1032C2ED9D5B2C2
:100F600045EA05250F2C45EA054519D9264603F122
:100F70001001103E0F2E41F8105C41F80C5C41F856
:100F8000085C41F8045C01F11001F2D8A4F11001F1
:100F900021F00F0104F00F041031032C0B440DD984
:100FA0001E4621460439032946F8045BFAD8211F5E
:100FB00021F0030104310B4404F003042CB1D2B23C
:100FC0001C4403F8012BA342FBD170BC70470C46B4
:100FD0000346C2E710F8012B11F8013B012A28BF94
:100FE0009A42F7D0D01A7047034613F8012B002A13
:100FF000FBD1181A013870472DE9F04D2DED028B09
:1010000088B000AF054640688368DB683A2198479E
:10101000041EC0F23381686883681B6907F11802F7
:101020001E219847041EC0F22981686883681B69E5
:1010300007F1100220219847041EC0F21F81686842
:1010400083681B6907F1080221219847041EC0F23A
:101050001581914B1B6803F00703022B40F21581A9
:101060002E68B869FFF7CAF904460D46F869FFF71C
:10107000C5F987A3D3E90023FFF754FB02460B46CB
:1010800020462946FFF76EF800220023FFF76AF892
:1010900041EC180B3869FFF7B1F904460D46786941
:1010A000FFF7ACF97AA3D3E90023FFF73BFB024635
:1010B0000B4620462946FFF755F80022774BFFF7ED
:1010C00007FA00220023FFF74DF882468B46B868E6
:1010D000FFF794F904460D46F868FFF78FF96CA303
:1010E000D3E90023FFF71EFB02460B4620462946A4
:1010F000FFF738F80022694BFFF7EAF900220023D6
:10110000FFF730F841EC170B6D4600233B710223CB
:101110007B711C230C2213F0070F02D10832083315
:1011200004E004320433F6E70432043313F0070F0B
:10113000FAD10832083301E00432043313F0070413
:10114000FAD102F10A0C6346213222F00702ADEB1C
:10115000020D6A46BCF1000F7AD002F11008BCF112
:10116000030F73D9B8F1000F04D0BCF1040F01DDF7
:101170004B4B536100233B7002237B70B8F1000F8F
:1011800003D0BCF1080F00DD96611C210C200B463A
:1011900011F0070F0DD18646B8F1000F05D060455C
:1011A00003DA08EB000181ED008B0EF1080E083325
:1011B00005E004300431EAE70EF1040E0433194669
:1011C00013F0070FF8D17646B8F1000F05D0E645C9
:1011D00003DA08EB0E03C3E900AB083601F108039C
:1011E00001E00436043313F0070FFAD13346B8F1A7
:1011F000000F05D0664503DA08EB060181ED007BA0
:1012000003F108060A33B8F1000F0DD008EB060110
:10121000002007E000F1200EBE441EF820EC01F88B
:1012200001EB01300128F5D99C4501DA6FF01B0371
:10123000B8F1000F0CD0C6F387063E71002179711A
:10124000B9710121F9717868106101E06FF01B0339
:1012500000216FF300016FF341016FF382016FF31F
:10126000C501032060F3881163F353216FF31F510D
:101270001032002308480EF0F5FCAD46204620371A
:10128000BD46BDEC028BBDE8F08D0024F6E700BF43
:101290000000000080842E41D010002000408F40CC
:1012A000E04A06000000000010B584460C460C48D9
:1012B000ACFB000108A3D3E900234FF0070E0EFB9F
:1012C0000C11FFF767FC074B1B68074A02FB030082
:1012D000204410BDAFF3008000CA9A3B000000001C
:1012E0008D49FD1A8CF200200080841E0000000051
:1012F0002DE9F04F8FB00B900D4617465EF063FB63
:101300004B0143EAD0634401241A63EB01039B00C1
:1013100043EA9473A400241843EB0101C90041EA95
:101320005471C4F3103444EA41444FEAD138012DDA
:1013300068D07D6829464048FFF74CFE28B1294611
:101340003E48FFF747FE002866D139A3D3E90023C2
:1013500020464146FFF7CEFB0C900E4634A3D3E95E
:10136000002320464146FFF7C5FB15461C46344A7C
:10137000002328462146FFF7BDFB07460D91304A62
:10138000002328462146FFF7B5FB15461C464EF6BE
:101390006022002328462146FFF7ACFB81468846A1
:1013A0004EF66022002328462146FFF7A3FB154690
:1013B0001C464FF47A72002328462146FFF79AFB19
:1013C00083468A464FF47A72002328462146FFF767
:1013D00091FBCDE90823CDF818B0CDF81CA0CDF8CD
:1013E0001090CDF8148002970D9B03930C9B0093F3
:1013F0000196144A08210B9851F02BF900200FB0E8
:10140000BDE8F08F0094CDF804800F4A08210B98B6
:1014100051F01FF90020F2E72B460C4A01210B98EE
:1014200051F017F96FF00400E9E700BFAFF3008057
:10143000005C260500000000CC600600D0600600BD
:1014400080EE3600F4600600B8600600DC6006003E
:1014500010B5082140F6014015F0CCFFD8B1044684
:1014600008210C3024F0B2FA02460F4B93F890306A
:1014700013F0010F0BD10D484FF0005153F013FD45
:101480000022214640F6014016F006F810BD04A1E6
:10149000D1E90001F2E76FF06800F7E7AFF30080F1
:1014A00090880002008000200000002010880002C8
:1014B00030B589B00C9D002839D00446002943D0AE
:1014C000D0F8200110F0010F4BD10020C4F8080122
:1014D000C4F80C0104F58870C4F81001C4F81401B4
:1014E00004F58C70C4F81801C4F81C01002D45D017
:1014F0002879002844D10120C4F820019FED227BE7
:101500008DED067B002004900393029001900094DF
:101510001F4B204631F0EEFD25B1296811B1204660
:1015200031F0B2FB20465DF097FF09B030BD194C99
:101530004FF433732246184918484FF070FF4FF4A8
:10154000337120460AF060FA124C40F2CD23224655
:10155000134912484FF063FF40F2CD2120460AF0B4
:1015600053FA0C4C40F2CE2322460E490B484FF062
:1015700056FF40F2CE2120460AF046FA0120BBE792
:1015800040F20110B8E700BFFFFFFFFFFFFFFFFFC2
:10159000B5400300C0040700A8050700A416060014
:1015A000B0050700B80507009FED010B704700BFAD
:1015B000000000000000F87F2DE9F04F1F469DB0AD
:1015C00000230C4682460F9218934FF00008984B68
:1015D0004FF000091D682846FFF706FD22468346A6
:1015E000179213782B2B3BD02CD80D2B26D8082BF9
:1015F00026D8002B2FD000230D93179E3378302B45
:1016000074D1737803F0DF03582B65D10D9B17A9B4
:10161000884A5046019318AB0297009319AB4DF0DE
:10162000A9FD10F00705044635D0062D1AD10F9BF1
:101630000BB101361E6042464B4637E0202BDAD113
:101640000132CDE72D2BD6D101230D93531C1793D7
:101650005378002BD1D10F9B002BECD01C60EAE714
:101660000023F2E7189A3AB135211AA85FF05CF826
:10167000189950464EF03EF8013D199A042D06D8AF
:10168000DFE805F0190322251900DDE91A89210791
:1016900001D549F000490F9B13B1179B0F9A1360B6
:1016A0000D9B002BC7D0424609F1004343EC102BA1
:1016B0001DB0BDE8F08FDDE91A8302F2334223F456
:1016C000801343EA0259E2E7DFF86C91DFE76FF03D
:1016D00000494FF0FF38DAE7179B5A1C17925B78E6
:1016E000302BF9D0002BD6D0012300E000230027B7
:1016F00004930A22179BCDE905770A931798067879
:10170000A6F13003D9B2092924D95A4629465EF0F8
:1017100059FC00282DD000203246059D8346034603
:10172000652A01D0452A13D11DB9049A024392D0EB
:101730000025179C621C179262782B2A6ED02D2AE6
:1017400072D04FF0000CA2F1300109297AD9179418
:10175000002699E00599013008291790D7BF06990E
:1017600002FB073702FB01330693059B0133059308
:10177000C4E7179B03EB0B02179213F80B20059B92
:10178000A3B383461D46A2F13003092B12D90123CE
:10179000C6E7179B01305A1C17925A78302AF8D0A6
:1017A000A2F13103082B00F2EF8483460020179B3F
:1017B00005460A93303A00F1010311D09B4400EB37
:1017C000050C2B460A21634512D12B180135082B35
:1017D000054419DC06990A2303FB01230693002321
:1017E000179A1846511C17915278CCE70598D5E7FF
:1017F000082B03F1010303DC069E4E430696E2E745
:10180000102BD8BF4F43DEE70F2BDCBF0A2303FBAF
:101810000727E4E74FF0000B012386E74FF0000CA9
:10182000A21C1792A2788EE74FF0010CF8E700BFD8
:10183000E8380700743807000000F07F179A511C41
:1018400017915278302AF9D0A2F1310108293FF6D8
:101850007FAF303A0792179A0C92179A561C179638
:101860005278A2F1300EBEF1090F38D90C99761AD0
:10187000082E44F61F6603DC07998E42A8BF0E4669
:10188000BCF1000F00D07642002D4FD104990843DF
:101890007FF401AF002B7FF4DEAE692A29D026DC6D
:1018A000492A26D04E2A7FF4D6AE9B4917A85EF06F
:1018B000ABFD00283FF4CFAE179B1B78282B2FD110
:1018C0001AAA964917A85EF0B3FD052828D11B9BDC
:1018D000DDF8688043F0FF4949F4E009DBE6079E44
:1018E0000A2101FB0621A1F130020792B5E76E2A19
:1018F000D9E78B4917A85EF087FD00283FF4ABAE0F
:10190000179B17A88749013B17935EF07DFD10B91F
:10191000179B01331793DFF81C924FF00008BAE6CB
:101920008148FFF741FE59EC108BB4E6A6EB0B03A0
:1019300006982C460C93059B002B08BF2B46102DB8
:101940000593A8BF1024FEF749FD092D804689465E
:1019500013DC0C9B002B3FF49EAE0C9B78DD162B0A
:1019600045DC7249424601EBC3014B46D1E9000117
:10197000FEF7AEFD804689468DE66C4B03EBC40353
:1019800053E91223FEF7A4FD804689463846FEF748
:1019900025FD02460B4640464946FEF7E3FB0F2D68
:1019A00080468946D5DD2C1B0C9B1C44002C25DC75
:1019B00000F0A280644214F00F020AD05B4B404654
:1019C000494603EBC203D3E90023FEF7ABFE804692
:1019D0008946241100F090801F2C40F3B18022230F
:1019E0004FF000084FF00009CAF8003053E6C5F187
:1019F00025030C9A934219DA2C1B144414F00F039C
:101A00000AD04A49424601EBC3014B46D1E90001E5
:101A1000FEF75EFD8046894634F00F046CD0B4F5C5
:101A20009A7F41DD2223CAF8003074E7C5F10F0523
:101A30003E4C42464B4604EBC501D1E90001FEF79E
:101A400047FD0C9B5D1B04EBC504D4E900238FE725
:101A50001633A8DBABEB0602344B4046494603EB9A
:101A6000C203D3E90023FEF75DFE83E7002306935C
:101A70002223DFF8C0904FF00008CAF80030189910
:101A800050464DF037FE069950464DF033FE05990D
:101A900050464DF02FFE109950464DF02BFE079901
:101AA00050464DF027FEF6E50023241140464946F6
:101AB0001F4F0493012C22DC0BB180468946049B06
:101AC000A9F154791A49424601EBC3014B46D1E9C9
:101AD0000001FEF7FDFC174B0A4680460B401649F5
:101AE0008B429FD8A1F580118B4286BFDFF84C90C6
:101AF0004FF0FF3802F15479002304934BE0E207E2
:101B000004D5D7E90023FEF7E3FC0123049A64100F
:101B1000083701320492CDE77D8107006038070065
:101B200075810700A78107005D8007007814060013
:101B3000501406000000F07F0000A07CFFFFEF7F44
:101B400014F0100340464946AA4F18BF6A23049375
:101B50000023E20704D5D7E90023FEF7B9FC0123EF
:101B6000641007F10807F4D10BB180468946049B45
:101B700043B1C9F30A524946C2F16B03002B4EDC54
:101B80006A2304930022002340464946FEF708FFDB
:101B900000287FF424AF069B5046059A00932B46FD
:101BA0000A994DF011FE109000283FF43BAF0C9BBA
:101BB000ABEB060B002BB4BF5B46002311930C9BD1
:101BC00023EAE3731393002307930593109B504676
:101BD00059684DF04FFD069000283FF449AF109B27
:101BE0000C301A6903F10C01023292005EF057F8D2
:101BF0001AAA19A9504649EC108BCDE90A894EF072
:101C0000BFF8189000283FF433AF012150464DF043
:101C100025FE03460590D0B90023059328E71F2B26
:101C20000EDD342B4FF00008DBBF4FF0FF33C2F165
:101C30004B024FF05C799340D8BF03EA01099FE75C
:101C40004FF0FF3202FA03F303EA080898E7199C01
:101C50001A9A002CA9BF119B139BE718139EB8BFBB
:101C60001E1B049BB8BF119FE41A634B1444C2F1BE
:101C70003602013C9C4280F2B0801B1B01251F2BC9
:101C8000A2EB0302CDBFC4F17F449D40002404F5C4
:101C90007F04C2BF04F57B44E23405FA04F407EB89
:101CA000020B049B16445F451E443B46A8BF5B469F
:101CB000B342A8BF3346002BC2BFABEB030BF61AEF
:101CC000FF1A119B002B16DD1A46059950464DF060
:101CD00085FE059000289FD00146189A50464DF089
:101CE000D3FD0E9000283FF4C3AE189950464DF036
:101CF00001FD0E9B1893BBF1000F71DC0C9B002BB8
:101D000008DD139A504606994DF068FE06900028AB
:101D10003FF4ACAE002E08DD3246069950464DF039
:101D2000B7FE069000283FF4A1AE002F08DD3A462A
:101D3000059950464DF0ACFE059000283FF498AE52
:101D4000069A504618994DF00FFF079000283FF46F
:101D50008FAEC36805990E930023C3605EF097FCB5
:101D600000284BDA0E9B53EA080340F0BC80C9F30D
:101D70001303002B40F0B78029F000431B0D1B0517
:101D8000B3F1D66F40F2AF80079B5B6923B9079B25
:101D90001B69012B40F3A7800122079950464DF0A3
:101DA00077FE059907905EF072FC002840F39B8057
:101DB00029F00043049A1B0D1B05002A79D0B3F1CA
:101DC000D66F6DD8B3F15C7F46D84FF000084FF066
:101DD00000092223CAF8003051E6002401255EE7FD
:101DE0005A46189950464DF053FE1890002885D158
:101DF0003EE600BF2814060002FCFFFFCB4640F081
:101E0000A3800E9AC9F31303002A40D09C4A934240
:101E100058D1049B42467BB9B8F1FF3F40F089801E
:101E2000984B99453FF424AE974BDDF8108009EAB2
:101E3000030303F5801922E6934B09EA0303B3F188
:101E4000D46F16D918F101011BD18E4A91453FF488
:101E50000FAE03F5801980468C4B40464946002260
:101E6000FEF736FB0B468046894603437FF407AEF8
:101E7000AFE71E0D4FF0FF31C6F16B06B14088454C
:101E8000E7D0002C5ED014EA0B0FE5D01EE0002B4B
:101E90004AD1B8F1000F8BD064B314EA0B0F2BE0DA
:101EA000A3F580134FF0FF386FEA13596FEA095911
:101EB000D2E7A3F580134FF0FF386FEA13596FEAAA
:101EC0000959DCE59CB114EA090F0CD0404649469B
:101ED000049A5EF0BEF8DDE90A0153EC102BFEF720
:101EE00041F980468946049B002BB5D1C7E515EA28
:101EF000080FEAE718EA050FF5D0049A404649466C
:101F00005EF0A7F8DDE90A0153EC102BFEF728F983
:101F10000022002304460D46FEF742FD00287FF410
:101F200054AFA046A946DEE7002CB6D115EA080F4B
:101F3000E2E724B114EA090F3FF4A1ADC6E718EABD
:101F4000050FF9E72A42A0E7059907985EF0BAFB6A
:101F500000224FF0804355EC104B20462946FEF7F7
:101F600033FD00286DD00E9B002B78D1B8F1000F07
:101F700056D1C9F31303002B59D10022444B2046FC
:101F80002946FEF717FD002858D120462946002291
:101F9000404BFEF79DFA04460D4605F100430894B8
:101FA0000993394B0BEA03031293129A3A4B9A4264
:101FB000DDE9086740F0A980ABF1547949EC108B5A
:101FC0004DF06AFEDDE9082351EC100BFEF780FAB4
:101FD00042464B46FEF7C6F80B462B4980462F4A31
:101FE000194091425CD90B9A264B9A4203D10A9B25
:101FF00001333FF43DADDFF88C904FF0FF38189976
:1020000050464DF077FB069950464DF073FB05990D
:1020100050464DF06FFB079950464DF06BFBD5E5F0
:10202000B8F1010F03D1B9F1000F3FF4CEAE002497
:10203000174D9FED0F7B8DED087BB2E70024154D0A
:10204000ABE7144B204629460022FEF741FA0E9BCF
:1020500004460D46002BA0D0CDE90845A1E79FED31
:10206000067B55EC174B8DED087B9AE7AFF30080AC
:10207000000000000000F0BF000000000000F03F82
:10208000FFFF0F00FFFFEF7F0000F07F00005039DF
:102090000000F03F0000E03F0000E07FFFFF9F7C7A
:1020A00003F15479049B4E46002BA8D129F000433C
:1020B000129A1B0D1B059A42A1D120462946FEF714
:1020C000D7FDC9F31306FEF7D5F90B46024629469C
:1020D000204646EA0806FEF743F80E9B04460D46E6
:1020E0001E434BD02EA3D3E90023FEF763FC002848
:1020F0007FF4C5AC204629462BA3D3E90023FEF785
:1021000077FC00283FF47BAFB9E4049B13B3129B28
:10211000B3F1D46F1ED82046294625A3D3E9002366
:10212000FEF752FC90B129462046FEF76BFD0128D0
:1021300038BF0120FEF752F90E9B04460D46D3B975
:1021400001F1004314901593DDE9146707F1D6639C
:10215000129A9F1A9DED0A0B4DF09EFD30463946AE
:1021600053EC102BFEF7B4F9DDE90A23FDF7FAFF73
:102170008046894696E7CDE91445E5E70EA3D3E905
:102180000023FEF717FCBCE7652A3FF443AB452A62
:102190003FF440AB0123FFF779BB00BFAFF30080F2
:1021A0009535A094FFFFDF3F35E5AF350000E03FF8
:1021B0000000C0FFFFFFDF419535A094FFFFCF3F38
:1021C0002DE9F04F476A97B08346209E08910C9204
:1021D000129355EC104B8DED000B7FB910204BF096
:1021E0005FFF0246CBF8240020B9A74BEA21A7489D
:1021F0004BF026FFC0E901770760C760DBF82430A9
:10220000196859B15A680123584693404A608B6057
:102210004DF070FADBF8243000221A602B1EB7BF95
:1022200023F00043002301220193A8BF3360019FE4
:10223000974BB8BF3260BB4319D142F20F73129A69
:102240001360C7F31303234300F0DB85219B53B9CD
:10225000904B21E0904B03930833219A136003982D
:1022600017B0BDE8F08F8B4B03930333F5E79DED7B
:10227000007B0022002351EC170B8DED0A7BFEF74B
:102280008FFB804650B10123129A1360219B13B13A
:10229000824B219A1360824B0393E0E7C7F30A56FF
:1022A00014AA15A958469DED0A0B4DF069FD029040
:1022B000002E76D00B9BA6F2FF36CDF84C80C3F3F0
:1022C000130343F07F53DDE90A0143F44013194639
:1022D0000022744BFDF744FF65A3D3E90023FEF70A
:1022E000F7F865A3D3E90023FDF73CFF04460D464C
:1022F0003046FEF783F862A3D3E90023FEF7E8F83F
:1023000002460B4620462946FDF72CFF04460D46A3
:10231000FEF778FB00220746002320462946FEF7F9
:1023200049FB40B13846FEF769F822462B46FEF7D6
:1023300037FB00B9013F162F52D85B4B03EBC703A5
:10234000DDE90A01D3E90023FEF734FB002849D078
:10235000013F00231193149B9B1B5A1E4CBFC3F1DA
:1023600001030023079245BF0693002306930793BA
:10237000002F39DB079B10973B44079300230993F9
:10238000089B092B66D8052BC5BF043B00240124FC
:102390000893089B023B032B67D8DFE803F02D3A34
:1023A0003859DDE914631E4406F23243202BC9BFBD
:1023B000C3F14003C3F120039F4006F21243D8BF8C
:1023C00004FA03F006F1FF36C4BF24FA03F347EA28
:1023D0000300FEF703F80122A1F1F873139276E7E8
:1023E0000123B7E71190B6E7069BDB1B06937B4200
:1023F000099300231093C3E700230D930C9B002B3C
:1024000056DC012399461A4604930C920CE00123F2
:10241000F3E700230D930C9BFB1803F101090493D0
:102420004B46012BB8BF0123DBF824000021042216
:1024300002F114059D423FD9416058464DF01AF90A
:10244000039000283BD1194B02464FF4D571CEE6DC
:102450000123DFE7012400230D9408934FF0FF339D
:102460000022994604931223CFE701230D93F5E749
:1024700061436F63A787D23FB3C8608B288AC63F8A
:10248000FB799F501344D33FB1810700C8810700F7
:102490000000F07FAD810700A48107008181070063
:1024A000808107000000F83F781406003C82070096
:1024B0000C9B99460493B7E701315200B8E7DBF86B
:1024C0002430B9F10E0F039A1A606FD8002C6DD02A
:1024D000002F36DD07F00F02A04BF8054FEA271456
:1024E00003EBC20393ED007B8DED0E7B17D59C4B68
:1024F00004F00F044FF00308D3E90823DDE90A01D3
:10250000FEF710F9CDE90001954D5CB9DDE90E2328
:10251000DDE90001FEF706F9CDE900012BE04FF0FF
:102520000208F1E7E10709D508F10108DDE90E012C
:10253000D5E90023FDF7CCFFCDE90E016410083585
:10254000E3E700F007817C42844B854D4FF00208A1
:1025500004F00F02241103EBC203DDE90A01D3E901
:102560000023FDF7B5FF0023CDE90001002C40F06A
:10257000E580002BD0D1119BDDE90045002B00F058
:102580004C810022774B20462946FEF713FA00289B
:1025900000F04381B9F1000F00F03F81049B002B54
:1025A00000F3E480DDE90A34CDE90034159B002B0B
:1025B00002DB0E2F40F342820D9A002A40F0678220
:1025C000099C0025DDF81880B8F1000F0DD0079B9D
:1025D000002B0ADD4345069AA8BF4346D21AA8EB52
:1025E00003080692079AD31A0793099B0BB30D9B16
:1025F000002B00F0A682002C00F0A1822946224682
:1026000058464DF0EBF9029A0146054658464DF002
:102610003BF90299064658464DF06CF8099B1B1B86
:10262000099300F09182099A314658464DF0D6F947
:102630000290012158464DF011F9109B0446002BE1
:1026400000F084821A46014658464DF0C7F9089BAF
:102650000446012B03DC009B002B00F07C8200264B
:10266000236904EB830318695DF0C2FFC0F1200009
:102670001096079B184410F01F0000F09182C0F1E3
:102680002003042B40F38182C0F11C00069B03440D
:1026900080440693079B03440793069B002B05DDAC
:1026A0001A46029958464DF0F3F90290079B002B09
:1026B00005DD21461A4658464DF0EAF90446119BBD
:1026C000002B00F07682214602985DF0E0FF0028A2
:1026D00080F26F8200230A22029958464DF02CF8AE
:1026E0000D9B7E1E0290002B00F05C820023294689
:1026F0000A2258464DF020F8049B0546002B03DCC7
:10270000089B022B00F35E82B8F1000F05DD29461D
:10271000424658464DF0BCF90546109B002B00F090
:10272000D082696858464CF0A5FF0746002840F063
:102730007F820D4B024640F2EA2158E5E20706D5BA
:1027400008F10108D5E90023FDF7C2FE012364105A
:1027500008350BE74FF002080DE700BF78140600BC
:10276000501406000000F03F3C8207002046002283
:10277000AC4B2946FDF7ACFE7E1E08F10108049C17
:10278000CDE900014046FDF739FEDDE90023FDF704
:102790009FFEA54B0022FDF7E5FCA1F15073CDE9AA
:1027A0000E010F93002C3BD10022A04BDDE900016C
:1027B000FDF7D6FC02460B46CDE90023DDE90E23EA
:1027C000FEF716F9002840F05781DDE90E2101F1EE
:1027D0000043DDE90001FEF7EDF800283FF4E2AE2A
:1027E000002425460C9BDDF80CA0DE434FF00008CA
:1027F000214658464CF07EFF002D00F0A980B8F12C
:10280000000F05D0A84503D0414658464CF072FF52
:10281000294658464CF06EFF9AE03E464C46B1E7DA
:10282000834B03EBC40353E90201039B1C440D9B40
:10283000002B4AD002460B4600207E49FDF772FF6E
:10284000DDE90E23FDF78CFCDDF80CA0CDE90E01CF
:10285000DDE90001FEF7D6F80546FDF7CFFD02469B
:1028600030350B46DDE90001FDF77AFC0AF8015B23
:1028700002460B46CDE90001DDE90E01FEF7B8F88E
:10288000002865D100206C49DDE90023FDF768FCD4
:1028900002460B46DDE90E01FEF7AAF8002840F0DB
:1028A0000D81A24500F0EA8000225E4BDDE90E01B9
:1028B000FDF70EFE00225B4BCDE90E01DDE90001C4
:1028C000FDF706FECDE90001C2E7DDE90E23FDF7C5
:1028D000FFFDA046DDF80CA0CDE90E01DDE9000109
:1028E000FEF790F80546FDF789FD024630350B46A8
:1028F000DDE90001FDF734FC0AF8015B02460B46F6
:10290000A245CDE900234FF0000223D1494BDDE978
:102910000E01FDF727FC02460B46DDE90001FEF73C
:1029200067F8002840F0CA8000204249DDE90E2304
:10293000FDF716FC02460B46DDE90001FEF73AF80A
:1029400070B1C24608F1FF381AF8013C302BF8D0BC
:10295000374655E0334BFDF7BBFDCDE90001BDE740
:10296000DDE90A34CDE90034159B002BFFF628AED3
:102970000E2F3FF725AE2E4B03EBC70393ED007BE5
:102980000C9B002B8DED047B02DAB9F1000F64D0B3
:10299000DDF80CA0DDE90045DDE9042320462946E9
:1029A000FDF7C0FEFEF72EF80646FDF727FDDDE930
:1029B0000423FDF78DFD0246204606F130040B4648
:1029C0002946FDF7CDFB0AF8014B039C02460B4656
:1029D000AAEB0404A14540F08280FDF7C3FB044646
:1029E0000D46DDE90423FEF703F8002865D12046F3
:1029F0002946DDE90423FDF7D3FF08B1F3075CD4D2
:102A0000029958464CF076FE002301378AF80030D0
:102A1000129B1F60219B002B3FF421ACC3F800A048
:102A20001DE400BF0000244000001C4000001440D2
:102A3000781406000000E03F0000F03FA24B03EBDB
:102A4000C70393ED007B0C9B002B8DED047B9FDA7D
:102A5000B9F1000F9CDC7FF4C3AE00229B4BDDE993
:102A60000401FDF735FDDDE90023FDF7B7FF04465E
:102A700000287FF4B5AE3E462546B4E0DDE90A34D1
:102A8000CDE90034159B002B01DB0E2FD6DD089A13
:102A9000012A36DC139A82B303F23343099CDDF832
:102AA0001880069A012158461A440692079A1A4439
:102AB00007924CF0D3FE054686E53E4653469A46BD
:102AC00013F8012D392A06D1039A9A42F7D1302200
:102AD000039901360A701A7801321A7038E7002219
:102AE0007B4BFDF7F5FC0022002304460D46FDF765
:102AF00057FF00283FF450AF82E7149BC3F1360321
:102B0000CCE709F1FF34099BA34208DBB9F1000FC0
:102B1000A3EB04040EDBDDF818804B46C1E7099BEC
:102B2000109AE31A0994DDF8188000241A444B46E1
:102B30001092B6E7069BA3EB09080023B1E7029EBB
:102B400071E5099A029970E5029672E5089B012BDE
:102B500017DC009BABB9019BC3F313039BB9019B2B
:102B600023F00046360D360536B1069B01260133AB
:102B70000693079B01330793109B002B7FF470ADE6
:102B80001096012075E50026F6E73FF486AD1C336C
:102B9000069A1A4498440692079A1A4407927CE5CA
:102BA0000346F4E7049B002B2BDC089B022B09DC7B
:102BB00027E0B9F1000F1DDC089B022B1ADD3E4611
:102BC000CDF81090049B002B7FF40CAE214605221B
:102BD00058464CF0B1FD0146044602985DF057FDA1
:102BE00000287FF7FFADDDF80CA0312301360AF88D
:102BF000013BFBE50D9B3E46CDF81090002B7FF48A
:102C000083AD039F214602985DF041FA039B00F1DA
:102C10003009049A07F8019BFB1A9A4240F3CB80D3
:102C200000230A22029958464CF086FD0290E9E7FB
:102C30002A6905F10C010C30023292005DF02FF888
:102C40000122394658464CF023FF039BA84605460F
:102C500003F1010ADDE9032313440793009B03F00A
:102C6000010309930AF1FF332146029804935DF0B2
:102C70000EFA4146069000F1300902985DF007FD1A
:102C80002A462146074658464CF06EFFC268014668
:102C900002B358464CF02EFD002F3ADA0122029979
:102CA00058464CF0F5FE214602905DF0F0FC0028FD
:102CB00003DC29D119F0010F26D0B9F1390F1DD14C
:102CC00032E02846C1E700BF781406000000144037
:102CD000000024400A9002985DF0D9FC0A990C90FB
:102CE00058464CF007FD0C9A5ABB089B53B9099BF8
:102CF00043B9B9F1390F17D0002F05DD069B03F159
:102D0000310901E0002F2ADADDF810A00AF8019B52
:102D10006EE5089B3B4304D1009B03F00103002BAD
:102D2000BCD0B9F1390F36D1049F392307F8013BE4
:102D3000BA46013F1AF8013C392B5AD001333B7097
:102D400056E5002F06DB089B3B4306D1009B03F0B2
:102D5000010313B9002AA1DCD6E7002AE1DC079BB6
:102D600057460AF8019C53452ED000230A220299A7
:102D700058464CF0E1FCA84502904FF000034FF09C
:102D80000A02414658460BD14CF0D6FC8046054617
:102D90000AF1010A66E7DDF810A009F10109B5E7BB
:102DA0004CF0CAFC2946804600230A2258464CF0C3
:102DB000C3FC0546ECE7049B4FF00008002BCCBF9A
:102DC0001F460127039B1F440122029958464CF0DD
:102DD0005FFE214602905DF05AFC0028A8DC02D17B
:102DE00019F0010FA4D1BA4617F8013D302BFAD0E3
:102DF000FEE4039BBB429BD13123039A013613703F
:102E0000F6E4219B002B7FF425AA014BFFF744BA7F
:102E1000A481070010B500F025F868B104460E4BF8
:102E20001B6813F0070F01D1204610BD0B4A01218A
:102E300009484FF0DBF8F7E703F0ECFE0446002802
:102E4000F2D0054B1B6813F0070FEDD0044A0121A7
:102E500001484FF0CBF8E7E7BC1000204015060012
:102E60006415060090B585B000AF624B1B6803F097
:102E70000703022B71D96C4600233B7102237B713F
:102E80000122BA710322FA713B7204237B728CB067
:102E9000EC461CF110022DD04FF01A0E2AB1BEF1F3
:102EA000040F02DD544BCCF8143000233B71022395
:102EB0007B712AB1BEF1080F02DD504BCCF81830FF
:102EC0000123BB710323FB712AB1BEF10C0F02DD9C
:102ED0004B4BCCF81C3002233B7204237B72B2B103
:102EE000BEF1100F02DD474BCCF820300CF124036B
:102EF00000210AE06FF0004ED0E701F110003844E5
:102F000010F80C0C03F8010B01310529F5D9BEF1BD
:102F1000190F3FDD1A234AB105213970002179705C
:102F2000B9700321F9703868CCF8100000216FF3F4
:102F300000016FF341016FF382016FF3C5010320BC
:102F400060F38811C3F30A0363F353216FF31F5136
:102F5000002328480CF086FEA546264B1B6803F08C
:102F60000703022B19D807F10F0008F033FDFB7B94
:102F7000CBB1012B2FD124480CF0A6FC044628B974
:102F80001C4B1B6803F00703022B1ED82046143786
:102F9000BD4690BD6FF01B03BDE71C4A03211548D9
:102FA0004FF024F8DFE71A480CF08EFC04460028A6
:102FB000ECD1104B1B6803F00703022BE6D9154A2E
:102FC00003210C484FF012F8E0E7134A03210948A7
:102FD0004FF00CF8DAE7114C38232246104911481B
:102FE0004EF01DFA10484EF01AFA3821204608F02B
:102FF0000BFD00BF741000209C150600D8160600BB
:10300000E81506000017060024170600F015060054
:10301000281706000C1606002C1606004C16060093
:10302000603A0600A4160600C4160600014B18708C
:10303000704700BF3A0F002008B10068704710B514
:10304000074C40F24A232246064907484EF0E7F96A
:1030500006484EF0E4F940F24A21204608F0D4FC3C
:103060002C1706005C170600A41606007017060051
:1030700010B582B0FFF7E0FF04460378042B08D0B8
:10308000052B23D02F4A126812F0060F53D102B03D
:1030900010BD2C4B1B6803F00703022B10D82169CD
:1030A000E06805F001FD0028F1D0264B1B6813F005
:1030B000060FECD0244A022122484EF097FFE6E7A3
:1030C000224A03211F484EF091FFE8E71D4B1B6881
:1030D00003F00703022B1BD8237D162BD7D04FF00C
:1030E00080730093002302221946184604F012FC54
:1030F0000346A0B110F1780FC9D0124A126812F03D
:10310000070FC4D0124A01210E484EF079FFBEE7E6
:10311000037D104A03210B484EF072FFDCE7094B98
:103120001B6803F00703022BB1D90B4A03210548A2
:103130004EF05CFFABE7094A022102484EF060FF07
:10314000A5E700BFA810002090170600841706000E
:10315000C4170600A8170600E417060008180600A2
:1031600010B588B000220023CDE906230023049384
:1031700005220392029301930093204B4FF40062C7
:103180001F4920482FF0B6FF1F4B18601F492FF032
:103190007BFD70B104461E4B1B6813F0070F02D174
:1031A000204608B010BD1B4A012119484EF01EFFF1
:1031B000F6E700220023CDE906230023049305222D
:1031C0000392029301930093134B4FF4006213494F
:1031D00013482FF08FFF134B186013492FF054FD45
:1031E00004460028DCD00A4B1B6813F0070FD7D029
:1031F0000E4A012106484EF0F9FED1E7FD350000E8
:10320000101B0120401900200C3C00203018060043
:10321000A8100020401806000D33000010130120F4
:1032200038180020083C00206418060078180600B2
:1032300010B541F69A1200232749284822F0D8FFFA
:1032400068B10446264B1B6813F0070F01D12046D6
:1032500010BD244A012122484EF0C8FEF7E741F68E
:103260009A1200232049214822F0C2FF044650B19F
:103270001B4B1B6813F0070FE9D01D4A01211848AA
:103280004EF0B4FEE3E741F69A12002319491A48BA
:1032900022F0AEFF044650B1114B1B6813F0070F2C
:1032A000D5D0164A01210E484EF0A0FECFE741F6D8
:1032B0009A1200231249134822F09AFF044600286C
:1032C000C5D0074B1B6813F0070FC0D00E4A012171
:1032D00003484EF08BFEBAE714180020F0100600E9
:1032E000A8100020A01806001C18002018110600C5
:1032F000BC1806002C1800202C110600D818060057
:103300000C180020DC100600F818060000B58BB081
:103310000AE0BD220092A44A0121A4484EF07BFE9F
:1033200014E0A34B1B786BBB4FF0FF324FF0FF3321
:10333000CDE9002302AA06A99E4822F0A9FE58B1B1
:1033400003469A4A126812F0070FE2D1404080F318
:1033500011884FF0030002DF9DF808305A1E052A3D
:1033600000F23C8101A151F822F000BF09340000B5
:10337000DD35000023330000C33300009F3400001C
:103380006D35000000F0ACFE0020FFF74FFE02207C
:1033900007F012FC03460028C6D0844A126812F0D7
:1033A000070F06D1404080F311884FF0030002DF81
:1033B000BAE7CD2200927C4A01217C484EF02BFED8
:1033C000F0E77B4B1B78012BAED00120FFF72EFEE0
:1033D00001F09EF8022007F0B7FB03460028A3D0B7
:1033E000724A126812F0070F06D1404080F311882C
:1033F0004FF0030002DF97E7DC2200926A4A0121C6
:103400006A484EF008FEF0E709AA07A908A805F0E7
:10341000FBFA034650B1654A126812F0060F83D0DA
:10342000654A022161484EF0EBFD7DE7079A0021D5
:10343000084600F017FE034650B15C4A126812F0CD
:10344000070F16D1404080F311884FF0030002DFD0
:10345000099801F06DFFA0B1544B1B6813F0070FE2
:103460003FF462AF099B554A012150484EF0C8FD18
:103470005AE7EF2200924C4A01214C484EF0CBFD16
:10348000E0E74A4B1B6803F00703022B7FF64CAFC3
:10349000099B4B4A032145484EF0B2FD44E7434B9C
:1034A0001B6803F00703022B27D8049803F09CFB4A
:1034B00020B13E4B1B6813F0060F24D13C4B1B7808
:1034C0003BB34FF080730093002302221946184645
:1034D00004F020FA034600283BD010F1780F3FF4A7
:1034E00023AF324A126812F0070F3FF41DAF354A7E
:1034F00001212E484EF084FD16E7334A03212B4864
:103500004EF074FDD1E7314A022128484EF06EFD9D
:10351000D4E70120FFF78AFD00F0FAFF022007F050
:1035200013FB03460028CCD0204A126812F0070F84
:1035300006D1404080F311884FF0030002DFC0E75E
:1035400040F207120092184A012118484EF063FD1C
:10355000EFE7164B1B6803F00703022B7FF6E4AE80
:103560001B4A032111484EF041FDDDE60F4B1B685D
:1035700013F0060F11D105F06BFB034600283FF452
:10358000D3AE0A4A126812F0070F3FF4CDAE114ACB
:10359000012106484EF034FDC6E60F4A02210348D9
:1035A0004EF024FDE7E700BF18190600A810002020
:1035B0003A0F00201C1800203C190600581906007C
:1035C00080190600C4170600A0190600AC190600F1
:1035D000E4170600041A0600C8190600054A126816
:1035E00012F0060F3FF4A0AE034A022101484EF04C
:1035F00007FD99E6A8100020301A060010B586B025
:10360000012422E0404080F311884FF0030002DFE4
:1036100040F6CD42002303A9059822F063FC03463F
:1036200050B1744A126812F0070F26D1404080F35F
:1036300011884FF0030002DF9DF81030012B2AD0D3
:103640006C4B1B6813F0060F1FD14FF0FF324FF089
:10365000FF3305A9684822F09BFC03460028D7D019
:10366000644A126812F0070FCCD04A220092634AD3
:10367000012160484EF0CFFCC4E74F2200925F4A20
:1036800001215C484EF0C7FCD0E75D4A0221594851
:103690004EF0ACFCD9E7039B9A1E042A00F29D80F1
:1036A000DFE802F0433303655300564B1B7863B1E8
:1036B000012B1AD04F4A126812F0060FC5D0524A99
:1036C00002214C484EF09CFCBFE705F063FA03462C
:1036D0000028BAD0474A126812F0060FB5D04B4AFC
:1036E000022144484EF08CFCAFE705F037FA034660
:1036F0000028AAD03F4A126812F0060FA5D0444A0B
:1037000002213C484EF07CFC9FE704F01FFD03467D
:1037100000289AD0374A126812F0060F95D03D4A19
:10372000022134484EF06CFC8FE704F01FFD034685
:1037300000288AD02F4A126812F0060F85D0364A28
:1037400002212C484EF05CFC7FE705F0F7F80346B9
:1037500000283FF47AAF274A126812F0060F3FF4B0
:1037600074AF2E4A022123484EF04AFC6DE705F063
:103770006FFA034658B11F4A126812F0070F3FF460
:1037800064AF274A01211B484EF03AFC5DE7CCB1FB
:103790004FF080730093234B02220021084604F06F
:1037A000B9F8002400283FF450AF124B1B6813F007
:1037B000060F3FF44AAF03461B4A02210D484EF064
:1037C0001FFC42E74FF080730093184B0222002148
:1037D000084604F09FF80124E4E7064A126812F054
:1037E000060F3FF432AF124A022102484EF008FCA5
:1037F0002BE700BFA810002014180020181906009D
:10380000581A06003A0F0020B81A0600701A06006F
:10381000941A0600D01A0600F01A0600101B0600C3
:10382000041A06003C1B0600681B0600541B060019
:10383000981B0600014B1878704700BF3A0F002014
:1038400008B5064B1B6813F0060F00D108BD044AEB
:10385000022102484EF0CAFBF8E700BFA810002082
:10386000BC1B0600B0B584B002AF08F0ABFA58B18B
:103870000346A54A126812F0070F48D1404080F372
:1038800011884FF0030002DFFFF7C4FA034650B17E
:103890009D4A126812F0070F42D1404080F3118810
:1038A0004FF0030002DFFFF75BFC0446002873D0F3
:1038B000954B1B6813F0070F63D06D4600233B71D7
:1038C00002237B7188B00DF1080C1CF1100230D07E
:1038D0000E2022B1042802DD8C4BCCF814300023DA
:1038E0003B7002237B703AB3082802DD884BCCF88A
:1038F00018300CF11C03002101291DD801F1080E1C
:10390000BE441EF808EC03F801EB0131F4E740F285
:10391000C71200927F4A01217B484EF07CFBADE745
:103920004FF4E57200927B4A012177484EF073FB19
:10393000B3E76FF00040CCE70D2861DD0E234AB1FC
:103940000321397100217971B9710121F971786808
:10395000CCF8100000216FF300016FF341016FF309
:1039600082016FF3C501012060F38811C3F30A03DC
:1039700063F353216FF31F51002363480CF072F976
:10398000AD46614B1B6813F0070F3CD1404080F3FC
:1039900011884FF0030002DFFFF74AFC04460028BD
:1039A0006ED0594B1B6813F0070F5ED06D46002395
:1039B0003B7102237B7188B00DF1080C1CF11002E1
:1039C0002BD00E2022B1042802DD504BCCF814304D
:1039D00000233B7002237B7012B3082802DD4E4B9C
:1039E000CCF818300CF11C030021012918D801F182
:1039F000080EBE441EF808EC03F801EB0131F4E7B1
:103A00006FF01B039BE740F2CD1300932346414A1E
:103A100001213D484EF0FFFAB8E76FF00040D1E7D2
:103A20000D2861DD0E234AB103213971002179711E
:103A3000B9710121F9717868CCF8100000216FF399
:103A400000016FF341016FF382016FF3C5010120A3
:103A500060F38811C3F30A0363F353216FF31F511B
:103A6000002329480CF0FEF8AD46274B1B6813F0E5
:103A7000070F3CD1404080F311884FF0030002DF74
:103A800002F050FC044600287AD01F4B1B6813F04C
:103A9000070F6AD06D4600233B7102237B7188B00B
:103AA0000DF1080C1CF110022BD00E2022B10428BD
:103AB00002DD164BCCF8143000233B7002237B70E0
:103AC00072B3082802DD154BCCF818300CF11C033A
:103AD0000021012924D801F1080EBE441EF808EC8B
:103AE00003F801EB0131F4E76FF01B039BE74FF4A0
:103AF000E87300932346074A012103484EF08BFAEE
:103B0000B8E76FF00040D1E7A81000202C30060085
:103B1000E81B060018190600141C0600401C0600CD
:103B20000D2862DD0E234AB103213971002179711C
:103B3000B9710121F9717868CCF8100000216FF398
:103B400000016FF341016FF382016FF3C5010120A2
:103B500060F38811C3F30A0363F353216FF31F511A
:103B6000002388480CF07EF8AD46864B1B6813F0A6
:103B7000070F3DD1404080F311884FF0030002DF72
:103B8000814805F0B1F8044600286ED07D4B1B68D3
:103B900013F0070F5ED06D4600233B7102237B714B
:103BA00088B00DF1080C1CF110022BD00E2022B1B0
:103BB000042802DD754BCCF8143000233B7002233F
:103BC0007B7012B3082802DD714BCCF818300CF171
:103BD0001C030021012918D801F1080EBE441EF86B
:103BE00008EC03F801EB0131F4E76FF01B039AE7EF
:103BF00040F2D31300932346664A012161484EF0F8
:103C00000AFAB7E76FF00040D1E70D2868DD0E2310
:103C10004AB10321397100217971B9710121F9711A
:103C20007868CCF8100000216FF300016FF34101B8
:103C30006FF382016FF3C501012060F38811C3F3B4
:103C40000A0363F353216FF31F5100234D480CF017
:103C500009F8AD464B4B1B6813F0070F43D14040AA
:103C600080F311884FF0030002DF4FF08073009360
:103C7000494B02220021084603F04CFE044600286E
:103C80006ED0404B1B6813F0070F5ED06D460023CB
:103C90003B7102237B7188B00DF1080C1CF11002FE
:103CA0002BD00E2022B1042802DD384BCCF8143082
:103CB00000233B7002237B7012B3082802DD374BD0
:103CC000CCF818300CF11C030021012918D801F19F
:103CD000080EBE441EF808EC03F801EB0131F4E7CE
:103CE0006FF01B0394E74FF4EB7300932346294ACC
:103CF000012124484EF08FF9B1E76FF00040D1E781
:103D00000D2831DD0E234AB103213971002179716B
:103D1000B9710121F9717868CCF8100000216FF3B6
:103D200000016FF341016FF382016FF3C5010120C0
:103D300060F38811C3F30A0363F353216FF31F5138
:103D4000002310480BF08EFFAD460E4B1B6813F09E
:103D5000070F0CD1404080F311884FF0030002DFC1
:103D600000200837BD46B0BD6FF01B03CBE74FF412
:103D7000ED7300932346074A012102484EF04BF9A8
:103D8000E8E700BFA8100020D55D00002C30060039
:103D9000601C060018190600541B0600801C060053
:103DA000034B01221A70DA719A711A71704700BFC1
:103DB000803C00202DE9F041ADF5386D02AF0026C2
:103DC000C7F86C6BAEE0404080F311884FF0030001
:103DD00002DF04EB440007F6783303EB8405954BD0
:103DE0001A6855F8341C07F5717303EB80105BF00B
:103DF00056FF55F8341C904826F0DAFF0134092CA0
:103E00001DDC4FF0FF324FF0FF33CDE90023894A2C
:103E100007F6443303EB8401874826F095FF0346F9
:103E20000028D6D0854A126812F0070FCBD08D2219
:103E30000092834A012181484EF0EDF8C3E7814B9F
:103E40001B7C002B5FD0804B1B68002B74D107F6C6
:103E50006C337E4A4FF4F06107F5717001F01AFC83
:103E6000044600284FD0754B1B6813F0070F3FD056
:103E70006D4600233B7102237B7188B002A911F1CA
:103E8000100200F097804FF00E0C22B1BCF1040F2D
:103E900001DD6F4B4B6100233B7002237B70002AD6
:103EA00040F08B80BCF10D0F40F398800E2342B19F
:103EB0000320387100207871B8710120F87178689A
:103EC00008616FF300086FF341086FF382086FF326
:103ED000C508012161F38818C3F30A0363F353286B
:103EE0006FF31F580023414654480BF0BBFEAD460C
:103EF000524B1B6813F0070F73D1404080F31188B9
:103F00004FF0030002DFB6F57A7F73D001364D4BD8
:103F10001B7C3BB14B4B5A7ED7F86C1B4B4B186844
:103F2000FFF78EFC4FF0FF324FF0FF33012149487D
:103F300033F0B4F8002462E7474A0092474A4FF44E
:103F40007071381D26F0B2FC034650B13B4A12682E
:103F500012F0070F1ED1404080F311884FF003008C
:103F600002DF009707F5717310224FF47071381D4E
:103F700057F03AF9034600283FF469AF2F4A126818
:103F800012F0070F0ED1404080F311884FF003006C
:103F900002DF5CE79C220092294A012127484EF06B
:103FA0003AF8D8E7A1220092254A012123484EF091
:103FB00032F8E8E76FF0004C67E7BCF1080F01DD6D
:103FC000274B8B6101F11C03002004E017F800E08F
:103FD00003F801EB01300128F8D963E76FF01B0308
:103FE00065E7A72300932346154A012113484EF0A5
:103FF00012F882E707F5376207F674310E4826F0AB
:10400000FFFE0646002882D00C4B1B6813F0070FFA
:1040100007D1404080F311884FF0030002DF0026F3
:1040200075E7AE2300930346054A012103484DF08E
:10403000F2FFEEE7183C0020FC010020C40F002036
:1040400018190600803C00201C3C0020103C002079
:104050002C300600E8010020143C0020203C002009
:10406000A41C060070B505460E4614464CF0D9F85F
:1040700060B1184BDD6120464CF0D3F8B8B1154B58
:10408000DC602EB3134B5E61002022E0002DF2D0E5
:10409000114B1B6813F0070F02D16FF0150018E0E9
:1040A0002B460E4A01210C484DF0AAFFF5E7002CE3
:1040B000E7D0094B1B6813F0070F02D16FF0150012
:1040C00007E02346054A012103484DF099FFF5E733
:1040D000002070BD803C0020C40F0020B41C0600EE
:1040E000F0B58BB008AFFFF75BFE9C4B93F86430E4
:1040F000002B4AD09A4B93F86430002B00F0B78025
:10410000984CEC4604F1100EBEE80F00ACE80F002E
:10411000DEF80030CCF8003094E80F0001F05AFDD2
:104120000546002800F05B818F4B1B6813F0070FDA
:1041300000F04A816E4600233B7102237B7188B0F8
:10414000344616F1100200F005810E201AB1042841
:1041500001DD864B636100233B7002237B70002AE4
:1041600000F00E81082801DD814BA36104F11C03DE
:104170000021012900F2048101F1080CBC441CF863
:1041800008CC03F801CB0131F3E7744826F0BAFEFE
:1041900005460028AED0744B1B6813F0070F4DD0B6
:1041A0006E4600233B7102237B7188B0344616F1C2
:1041B000100212D00E201AB1042801DD6B4B63618E
:1041C00000233B7002237B70A2B1082801DD694BFC
:1041D000A36104F11C0300210AE06FF00040EAE74C
:1041E00001F1080CBC441CF808CC03F801CB0131E8
:1041F0000129F5D90D282DDD0E2342B10321397196
:1042000000217971B9710121F9717868206100216B
:104210006FF300016FF341016FF382016FF3C5018A
:10422000012060F38811C3F30A0363F353216FF392
:104230001F5100234C480BF015FDB5464A4B1B6837
:1042400013F0070F09D1404080F311884FF00300AD
:1042500002DF4FE76FF01B03CFE74FF4C07300930B
:104260002B46454A012140484DF0D5FEEBE73C483E
:1042700026F048FE054600283FF442AF3A4B1B6843
:1042800013F0070F4DD06E4600233B7102237B7164
:1042900088B0344616F1100212D00E201AB104284C
:1042A00001DD324B636100233B7002237B70A2B1BE
:1042B000082801DD314BA36104F11C0300210AE051
:1042C0006FF00040EAE701F1080CBC441CF808CC90
:1042D00003F801CB01310129F5D90D282DDD0E237D
:1042E00042B10321397100217971B9710121F9714C
:1042F0007868206100216FF300016FF341016FF3D3
:1043000082016FF3C501012060F38811C3F30A0332
:1043100063F353216FF31F51002313480BF0A2FCEA
:10432000B546114B1B6813F0070F09D1404080F3CD
:1043300011884FF0030002DFE2E66FF01B03CFE7C6
:1043400040F2851300932B460B4A012106484DF09D
:1043500062FEEBE76FF00040F8E600BF6402002069
:10436000FC010020803C0020C40F00202C300600FF
:104370000C1D0600D41C060018190600F01C0600CF
:104380000D2857DD0E2342B10321397100217971C7
:10439000B9710121F9717868206100216FF3000182
:1043A0006FF341016FF382016FF3C501012060F3E8
:1043B0008811C3F30A0363F353216FF31F510023E2
:1043C00043480BF04FFCB546414B1B6813F0070FF9
:1043D00033D1404080F311884FF0030002DF3D4BA2
:1043E000012283F820201B7C13B13B4B1B6873B365
:1043F00006F038F8034650B1354A126812F0070F3C
:1044000054D1404080F311884FF0030002DF33485D
:1044100001F092F8034650B12D4A126812F0070FCE
:104420004DD1404080F311884FF0030002DF0C377C
:10443000BD46F0BD6FF01B03A5E740F28913009362
:104440002B46274A012122484DF0E5FDC1E7002215
:104450000023CDE906230023049303220392029351
:10446000019300931F4B42F6F8221F491F482EF07C
:1044700041FE194B18601E492EF006FC0346002829
:10448000B6D0134A126812F0070F06D1404080F3ED
:1044900011884FF0030002DFAAE740F29312009266
:1044A0000F4A01210A484DF0B6FDEFE740F29B129A
:1044B00000920B4A012106484DF0ADFDA1E74FF4F3
:1044C000CF720092064A012101484DF0A4FDA8E7F1
:1044D000C40F0020803C0020B43C0020FC010020E0
:1044E00018190600B53D000010230120481A0020CD
:1044F000241D060010B50446FFF7F2FD034A08210B
:1045000020464EF0A6F8002010BD00BF2C1D06006E
:10451000F0B589B006AF654B93F820305BB9644BBA
:104520001B6813F0060F00F0B180624A0221604858
:104530004DF05CFDAAE005F0C3FF034650B15C4AB4
:10454000126812F0070F53D1404080F311884FF0EA
:10455000030002DF01F032F8034650B1544A1268FA
:1045600012F0070F4DD1404080F311884FF0030047
:1045700002DF4E4CEC4604F1100EBEE80F00ACE832
:104580000F00DEF80030CCF8003094E80F0001F0A6
:10459000ADFA054600286FD0454B1B6813F0070F96
:1045A0005FD06E4600233B7102237B7188B006AC5E
:1045B00014F110022ED00E201AB1042801DD3E4B5A
:1045C000636100233B7002237B7032B3082801DD56
:1045D0003A4BA36104F11C03002101291DD801F10C
:1045E000080CBC441CF808CC03F801CB0131F4E7FB
:1045F00040F2B1120092324A01212D484DF00BFDDC
:10460000A2E74FF4DA7200922D4A012128484DF0BA
:1046100002FDA8E76FF00040CEE70D2839DD0E233C
:1046200042B10321397100217971B9710121F97108
:104630007868206100216FF300016FF341016FF38F
:1046400082016FF3C501012060F38811C3F30A03EF
:1046500063F353216FF31F51002315480BF002FB46
:10466000B546134B1B6813F0070F15D1404080F37C
:1046700011884FF0030002DF0C4B002283F820204A
:10468000104826F0F5FB104826F0F2FB0C37BD462B
:10469000F0BD6FF01B03C3E74FF4DC7300932B46B0
:1046A000074A012102484DF0B6FCDFE7803C0020BC
:1046B000C40F0020441D06002C300600601D0600BB
:1046C00018190600FC0100206402002010B5044601
:1046D000FFF71EFF034A082120464DF0BAFF0020D5
:1046E00010BD00BF781D060010B584B00022002365
:1046F000CDE9002302AA03A90C4826F025FB38B90E
:1047000004460399094826F053FB204604B010BD27
:10471000074B1B6813F0060F02D16FF08B04F4E710
:10472000044A022102484DF061FCF6E7FC0100203A
:10473000C40F0020901D060010B500F059FF70B1A5
:104740000446114B1B6813F0070F01D1204610BD22
:1047500003460E4A01210C484DF052FCF6E705F0E5
:10476000BFFE044658B1084B1B6813F0070FEDD08D
:104770000346074A012104484DF042FCE6E705489C
:104780005BF031FAE2E700BFC40F0020B01D060065
:10479000D81D0600A43C00200C4B93F8803133B99F
:1047A0000A4B012283F88021036000207047074BE9
:1047B00093F881313BB9054B012283F88121C03345
:1047C0000360002070476FF00B007047045C00200E
:1047D000074B984203D0074B984204D07047002201
:1047E00083F880217047C03B002283F88121F5E7E0
:1047F000045C0020C45C0020034B002283F880216D
:1048000083F88121704700BF045C002008B50021B7
:10481000034B19704FF4707202485BF07AFA08BDCE
:10482000DF120120885D002008B502482FF022FE2B
:1048300008BD00BFCC02002008B10068704710B569
:10484000074C40F24A232246064907484CF0E7FD50
:1048500006484CF0E4FD40F24A21204607F0D4F827
:104860002C1706005C170600A41606007017060039
:1048700090B583B000AF394B93F8003C834229D008
:10488000364B83F8000C364B1B6803F00703022BF2
:104890005DD9344B53F820106C4600233B71022342
:1048A0007B7188B0EC461CF110021ED00E2022B1A4
:1048B000042802DD2C4BCCF8143000233B7002237B
:1048C0007B70FAB1082801DDCCF818100CF11C033C
:1048D000002115E0224B1B6813F0060F37D0234A46
:1048E00002211F484DF082FB31E06FF00040DEE70F
:1048F00001F1080EBE441EF808EC03F801EB01318B
:104900000129F5D90D2825DD0E234AB1032139717E
:1049100000217971B9710121F9717868CCF8100022
:1049200000216FF300016FF341016FF382016FF318
:10493000C501032060F38811C3F30A0363F3532115
:104940006FF31F51002306480BF08CF9A5460C3776
:10495000BD4690BD6FF01B03D7E700BF48B10020F4
:10496000BC0F00208C260600F01E0600B81E0600B4
:1049700038B54E4BD3F8F82BC3F8F42B93F8003C22
:10498000032B04D8DFE803F0020B3C6602B938BD04
:10499000464BC3F8042C0120FFF76AFFF7E74349B1
:1049A000B1F8023C01339BB2A1F8023C632BEED973
:1049B0000023A1F8023CD1F8043C9B1A03F5C33351
:1049C000A0333B4A02FB03F33A4A82FB0302DB17A4
:1049D000C3EBA21303F51B40AE30C1F8080C03F67D
:1049E000CC3341F29872934206D880B24BF04BFC24
:1049F0000220FFF73DFFCAE70020FFF739FFC6E7B7
:104A00002A49B1F8023C01339BB2A1F8023C632B66
:104A1000BDD90D460023A1F8023C014610464BF0DB
:104A200013FC00EBD0704410214B04FB03F3214A2C
:104A300082FB0312DB17C3EBA213D5F8080C184452
:104A400080B24BF020FC0F341E2CA0D80320FFF7BF
:104A50000FFF9CE71549B1F8023C01339BB2A1F866
:104A6000023C632B93D90D460023A1F8023C01467A
:104A700010464BF0E9FB00EBD07044100C4B04FBEC
:104A800003F30C4A82FB0312DB17C3EBA213D5F826
:104A9000080C184480B24BF0F6FB2034402C7FF613
:104AA00076AF0020FFF7E4FE71E700BF48B10020B9
:104AB00018FCFFFF019D7F3108B5401A63EB03032B
:104AC000144A904273F1FF3202DA013843F10003D5
:104AD00011490A6801320A60B0F5FA7043F1FF33F8
:104AE00041F28932904273F1000300D208BDFFF712
:104AF000FBFD18B9084B00221A60F7E7074B1B684B
:104B000013F0060FF2D0064A022104484DF06EFA67
:104B1000ECE700BF01000080005C0020BC0F00201B
:104B2000041F060008B5FFF787FE02684168007A97
:104B30000B4B5B7843B10B4BC3F8F42B48B142B13C
:104B40001046FFF7B9FF04E0074B1B6813F0060F90
:104B500000D108BD054A022103484DF047FAF8E7A5
:104B60004861002048B10020BC0F0020241F06002F
:104B7000464B93F8103C834200F08680B0B584B079
:104B800002AF0446414B83F8100C414B1B6803F005
:104B90000703022B53D93F4B53F820106D460023D7
:104BA0003B7102237B7188B00DF1080C1CF11002DF
:104BB00013D00E2022B1042802DD374BCCF814307C
:104BC00000233B7002237B70A2B1082801DDCCF8E2
:104BD00018100CF11C0300210AE06FF00040E9E717
:104BE00001F1080EBE441EF808EC03F801EB013198
:104BF0000129F5D90D2836DD0E234AB1032139717B
:104C000000217971B9710121F9717868CCF810002F
:104C100000216FF300016FF341016FF382016FF325
:104C2000C501032060F38811C3F30A0363F3532122
:104C30006FF31F51002316480BF014F8AD46032CF8
:104C400014D003204BF07BFC50B1114B1B6813F0C8
:104C5000070F0FD1404080F311884FF0030002DFAF
:104C60000837BD46B0BD6FF01B03C6E7032005F053
:104C70006BFFE9E74FF4B57300930346074A012140
:104C800003484DF0C8F9E5E7704700BF48B1002080
:104C9000BC0F00207C260600581F060018190600CD
:104CA0002DE9F0416C4B93F8003C032B10D10446E6
:104CB0000D468AB9684BD3F8182C291B114493F878
:104CC000103C012B1AD0022B5ED06BB1BDE8F081F5
:104CD0000020FFF74DFFF9E75F4B0022A3F8122CED
:104CE0000220FFF745FFE5E75B4B0022A3F8122CFB
:104CF000C3F8142C0120FFF73BFFE7E7564AB2F850
:104D0000123C581CA2F8120C092B2FD9524B00222E
:104D1000A3F8122CD3F8146C504B83FB0623F51721
:104D2000C5EBA30505F2F31240F2E6339A4227D908
:104D30000220FFF71DFF002DC8D016F1090F2FDB51
:104D400005F5FA73464A82FB0312DF17C7EBA21779
:104D50004EF6476293422DDD424A126812F0060F6A
:104D600021D13C27002F2FDD00263FE01346D2F84B
:104D7000142CD3F8FC0B091A0A44C3F8142CA5E729
:104D80000320FFF7F5FED6E7334AB2F8123C591C70
:104D9000A2F8121C0C2B99D90020FFF7E9FE95E729
:104DA000A5F5FA73CEE7304A02212E484DF028F9D6
:104DB0003C27D7E72D4A9342D4DA2A4A126812F0E8
:104DC000060F06D16FF03B07002FBFF67FAF002222
:104DD00036E0254A022123484DF012F96FF03B07D7
:104DE000F2E700231C4AA2F80C3A0136BE42BFF695
:104DF0006DAF1F4D05F5A048B8F80C3A03EB430022
:104E00004001043005EB4000C022002104305AF07C
:104E100080FFBA1BB8F80C3A4FF47A7101FB1242CA
:104E200003F5B451023105EB8105AA60762BD8D881
:104E300001339BB2D6E777230749A1F80C3A013A30
:104E4000BA427FF743AF044BB3F80C3A002BF2D0D1
:104E5000013B9BB2F0E700BF48B100206766666681
:104E6000D34D6210BC0F00206C1F0600B911FFFF6C
:104E70004861002010B5164BB3F80E3A23B3013B3E
:104E80009BB2144800F5A042A2F80E3A03EB43018E
:104E90004A01043200EB42000430BBB1013B9BB23B
:104EA0000C4A02F5A041A1F80E3A03EB4303590165
:104EB000043102EB4102141D002104F095FC002195
:104EC000204604F04DFC10BD7723DAE77723E7E7AF
:104ED00048B100204861002010B59AB004461F4B2D
:104EE000009300231E4A602102A825F0DFFC58B180
:104EF00003461C4A126812F0070F1CD1404080F391
:104F000011884FF0030002DF03230093602302AAFD
:104F1000C021204625F00EFD034650B1114A12680B
:104F200012F0070F10D1404080F311884FF00300BA
:104F300002DF1AB010BD4FF40B7200920A4A012131
:104F400008484DF068F8D9E74FF40C720092064A11
:104F5000012104484DF05FF8E5E700BFF85B002051
:104F6000885D0020BC0F00201819060070B582B0C3
:104F7000054616461046FFF72BFC494B03F5A042A9
:104F8000B2F80E4A04F5B451023103EB81039B6879
:104F9000EB1AC2F8FC3B1EB3762C2DD80134414BE2
:104FA000B3F80C3AA34232D03E4BA3F80E4A3E4B24
:104FB0001B783BB13C4B00221A703C4B1B6813F032
:104FC000060F1BD104EB440464010434344B03EB9F
:104FD00044030433364A1360364B1B78002B56D1FA
:104FE0000021334B186804F0BBFB2E4B93F80C3CAC
:104FF000002B51D102B070BD0024D0E7294BD3F86B
:10500000F03B2D4A022129484CF0FAFFDAE7FEF77F
:1050100011FCB0B9244B01221A70224AD2F8F03B9D
:105020000133C2F8F03B254AA2FB0312120B41F2F6
:10503000883101FB123222B91C4A126812F0060FA5
:1050400016D11B48FFF7A8FB034650B1174A126858
:1050500012F0070F12D1404080F311884FF0030087
:1050600002DFC0220021124B18685AF052FEB3E74B
:10507000134A02210D484CF0C3FFE2E740F2A72299
:105080000092104A012109484CF0C5FFE3E7084BA4
:105090001868FFF721FFA3E72846FFF769FCA9E797
:1050A0004861002048B10020DE120120BC0F002022
:1050B000FC5B0020DF120120A81F06005917B7D1A2
:1050C000CC1F06001819060038B505460024064B0B
:1050D00083F81C4C2046FFF74BFD044A0821284664
:1050E0004DF0B7FA204638BD48B10020F81F060041
:1050F00008B5094B93F80C3C4BB1074B012283F8E0
:105100001C2C064A08214DF0A4FA002008BD044AD0
:1051100008214DF09EFAF8E748B100201C20060057
:105120004020060010B504460B4B93F81C3C2BB1F5
:105130000A4A08214DF08DFA002010BD064B0020D0
:1051400083F80C0CA3F8020CFFF792FB044A082129
:1051500020464DF07EFAEFE748B1002070200600AF
:10516000A420060008B5054B012283F80C2C044A44
:1051700008214DF06EFA002008BD00BF48B10020A4
:10518000CC20060008B50A4B1B786BB9094B1B688D
:1051900013F0070F02D16FF0050008BD064A012188
:1051A00004484CF023FFF6E76FF00F00F5E700BF6F
:1051B000DF120120BC0F0020F420060008B50348D0
:1051C0005AF07DFC02482FF055F908BDF811002077
:1051D000CC02002010B50446FFF7F0FF034A082177
:1051E00020464DF036FA002010BD00BF1021060009
:1051F0002DE9F0432DED028B85B00746042957D1E8
:10520000164650680378424AD35C13F0040F56D018
:10521000B3681B783E4AD35C13F0040F57D00A22C0
:10522000002149F0E3FD04461FFA80F80A2200211C
:10523000B06849F0DBFD05461FFA80F90021F068EF
:1052400049F080FCB0EE408AB5EEC00AF1EE10FAEB
:1052500045D9F7EE007AB4EEE70AF1EE10FA3EDC3B
:10526000A4B2AEB2009623462A4A082138464DF031
:10527000F0F9B0EE480A49464046FFF783FF05467D
:1052800010F1100F33D0002D3BD118EE100AFBF7B0
:10529000C7F8CDE90201009623461F4A0821384687
:1052A0004DF0D7F9284605B0BDEC028BBDE8F08380
:1052B0001A4A01214DF0CDF96FF01505F2E7184AB1
:1052C000012138464DF0C5F96FF01505EAE7154A9A
:1052D000012138464DF0BDF96FF01505E2E7124A9D
:1052E000012138464DF0B5F96FF01505DAE7FFF703
:1052F00065FFB0EE480A49464046FFF743FF0546C2
:10530000C1E72B46094A082138464DF0A2F9BCE70F
:105310005F800700CC210600082206001C21060041
:105320006821060084210600A0210600EC21060069
:1053300008B5A0F57A624DF6C0239A4204D80A4B0C
:10534000C3F8180C002008BD084B1B6813F0060FAB
:1053500002D16FF01500F6E70346054A0221034823
:105360004CF04EFEF5E700BF48B10020BC0F002016
:105370003C2206002DE9F04385B00E460C9F6349A0
:1053800091F80180B8F1000F1AD0054614469946ED
:1053900020B35F4BD3F8F81BA1422AD0002942D09A
:1053A000631A43F69722934231D8A3F51C53063B68
:1053B000142B61D901F51C5410344FF0000834E06F
:1053C000544B1B6813F0060F02D105B0BDE8F08303
:1053D000514A02214F484CF009FEF6E74D4B1B683D
:1053E00013F0070FD5D04D4A01214A484CF0FEFD7D
:1053F000CFE7002CD2D0474B1B6813F0060FE4D048
:105400002346474A022143484CF0FAFDDDE7414A72
:10541000126802F00702022A07D9424A03213D48D6
:105420004CF0EEFD01E04FF00008394BC3F8F84BAB
:1054300093F81C3C1BBB03AB00933B4B4A463146E5
:10544000284600F01DFA034620B1324A126812F0D5
:10545000060F1AD1039BB3F5F06F1CD02D4A1268CA
:1054600012F0060FB1D04FF4F06200922F4A0221E1
:1054700028484CF0D0FDA8E74FF00008D5E7424699
:1054800021463846FFF70CFCD5E7294A022121487E
:105490004CF0B6FDDEE71E4BB3F80C5AB3F80E3AEB
:1054A000EB1A6E2B01DC00240CE01A4B1B6813F086
:1054B000060F8AD01F4A022116484CF097FD84E758
:1054C00000250134092C1DD805EB450040010430AE
:1054D0000E4E06EB4000736804EB4401C02203EB60
:1054E000811104305AF0DBFB4FF47A7303FB047331
:1054F00005F5B452023206EB8206B360762DDFD892
:105500000135DEE7024BA3F80C5A5EE74861002044
:1055100048B10020BC0F002064220600782206005B
:1055200090220600C42206004C61002018230600C9
:10553000FC2206004823060010B5A0B1194B1B78C9
:10554000F3B1184B5B784BBB164CA06045F6E832C4
:10555000002104F10C005AF0DCFBFFF78BFC012367
:105560006370002010BD104C4FF4806322460F4939
:105570000F484BF054FF4FF48061204606F044FA88
:105580000C4B1B6813F0060F02D16FF08B00E9E79C
:10559000094A022107484CF029FDF6E76FF0770031
:1055A000E0E700BF4861002080230600C823060012
:1055B000A4160600BC0F0020E023060038B50B4BF4
:1055C0005B787BB1094D00246C704AF06BFE05F5E9
:1055D000A045C5F8F84BC5F8F44B2046FFF7C8FACC
:1055E000204638BD6FF07700FBE700BF4861002020
:1055F00010B50D4C45F62042002120465AF089FB9B
:105600000A4804F05BF904F05FF90123237004F504
:10561000A04484F80C3C84F81C3C42F21073C4F89B
:10562000183C002010BD00BF486100206D4F0000F5
:1056300010B586B014461A468C4208D10A9B1A60EF
:105640000B9B089A1A600024204606B010BD0494F3
:105650000B9B03934FF470730293099B019300918A
:10566000089B022125F010FE044618B90A9B099AEE
:105670001A60E9E7054B1B6813F0070FE4D00346F7
:10568000034A012101484CF0BBFCDDE7FC1000207F
:105690009C2606002DE9F04FADF6247D04AF0446AC
:1056A000884616461D464FF4F0694A46002107F524
:1056B000F2605AF02EFB4A46002107F110005AF022
:1056C00028FB674B1B7C8BB1654B1B78012B1BD0D8
:1056D000644A126812F0070F40F0BA806FF01208A7
:1056E000404607F61477BD46BDE8F08F5D4B1B685A
:1056F00013F0070F02D16FF00508F1E75A4A0121B4
:1057000058484CF073FCF6E7EA46554B1B7E9B006D
:10571000073303F4FF63ADEB030D0DF1100907F13F
:105720000C03019307F53563009307F5F26310222C
:105730004146204655F0C6FD804660BB0446484BB6
:105740001B7EA34231DDC4EB041107F1100202EB12
:105750008113434AD26907F10800039009EB8400E2
:1057600002900193FB68009307F5F26303EB81134A
:105770004BF680314FF4066C3C480CFB0400FFF7FD
:1057800057FF834608B90134D9E7364B1B6813F03D
:10579000070F02D1D846D546A2E700902346344AE7
:1057A000012130484CF037FCF4E7012B09D0022BE3
:1057B0001CD02C4A126812F0070F3DD16FF012086E
:1057C000E9E7D9F80000B968BB1D0293294B0193A2
:1057D000F023009300231A460EF086F8002833D1F8
:1057E000244B3360FB882B60D54679E7D9F800005D
:1057F000B968BB1D02931F4B0193F0230093002354
:105800001A460EF071F808B18046C4E7D9F80400D2
:10581000BA1DFB88B9680292164A1A440192C3F174
:10582000F0039BB20093012300220EF05DF868B9EB
:10583000FB885B00FB80D3E70F4A012109484CF04D
:10584000DFFB6FF01208A6E78046A4E78046A2E7D8
:105850000A4A012103484CF0D3FB6FF012083FE7DE
:1058600058E70020FC100020C026060098D6002033
:10587000E4260600E8C40020182706004427060096
:105880002DE9F04FADF62C7D04AF7B608E4B1B797C
:1058900033B306460D4690464FF4F064224600218D
:1058A00007F5F3605AF035FA2246002107F1180097
:1058B0005AF02FFA00237B613B61FB60824B1B781F
:1058C000012B1BD0814A126812F0070F40F0F380C1
:1058D0006FF01204204607F61C77BD46BDE8F08F36
:1058E0007A4B1B6813F0070F02D16FF00504F1E744
:1058F000774A012175484CF079FBF6E7EA46724B8E
:105900009B799A00073202F4FF62ADEB020D0DF1B4
:105910001009012B0BD0022B56D06C4A126812F0E2
:10592000070F40F0C0806FF01204D546D2E7CDF8E3
:10593000088007F10C03019307F5F363009300233C
:105940004FF47072A9B230460EF03CF804460028BD
:10595000EBD15D4BD96807F110030393CDF80890A4
:1059600007F118030193FB68009307F5F3634BF607
:1059700080325848FFF75CFE044658B1534B1B6811
:1059800013F0070FD1D00346534A01214F484CF082
:1059900037FBCAE7D9F800004B4B1A7A396907F18F
:1059A000140301934D4B0093102325F063F8044634
:1059B0000028BAD17A69D7F8403F1A60474B7A6815
:1059C0001360D546002485E74FEA550BC5F34F0514
:1059D000CDF8088007F10C03019307F5F3630093FA
:1059E00000234FF47072294630460DF0EBFF044659
:1059F00000289AD1CDF8088007F10C03019307F62F
:105A00005833009301234FF47072294606EB0B00C4
:105A10000DF0D8FF044648B187E700902346304A8E
:105A200001212A484CF0F7FA2AE00134264B9B79F1
:105A3000A34227DDC4EB041307F1180101EB831225
:105A40002149C96807F11000039009EB8400029016
:105A50000192FA68009207F5F36202EB83134BF6AA
:105A600080324FF406651B4805FB0400FFF7E0FD9C
:105A700005460028D9D0154B1B6813F0070FCCD171
:105A80002C4652E7D9F80000D9F804103A6907F11A
:105A900014030193114B0093102355F0DCFB0446D3
:105AA000002887D041E70F4A012108484CF0A8FAA6
:105AB0006FF0120439E70C4A012104484CF0A0FAB7
:105AC0006FF0120406E700BF58E70020FC1000202A
:105AD0005C270600D8C500208027060068BD00208E
